:020000040000FA
:0400000006EF00F017
:10000800BCED06F010EE80F091EF08F0F29EFEC312
:1000180023F0FFC324F023C00BF024C00CF06C0EB7
:100028000B02F3CF09F0F4CF0AF00C02F3500A26C2
:10003800E80E0924D96E010E0A20DA6EFF0EE3CF0E
:10004800DFFF23C00BF024C00CF06C0E0B02F3CFC3
:1000580009F0F4CF0AF00C02F3500A26E50E092441
:10006800D96E010E0A20DA6EE8CFDFFF23C00BF04D
:1000780024C00CF06C0E0B02F3CF09F0F4CF0AF099
:100088000C02F3500A26E60E0924D96E010E0A2046
:10009800DA6ED8CFDFFF23C00BF024C00CF06C0E53
:1000A8000B02F3CF09F0F4CF0AF00C02F3500A2642
:1000B800E70E0924D96E010E0A20DA6EE0CFDFFFC1
:1000C800216A226A8DD021C00BF022C00CF0030EE9
:1000D8000B02F3CF09F0F4CF0AF00C02F3500A2612
:1000E80023C00BF024C00CF06C0E0B02F3CF07F00A
:1000F800F4CF08F00C02F3500826E00E0B6E010E48
:100108000C6E090E0B26000E0C2207500B26085009
:100118000C2209500B24D96E0A500C20DA6EFFCF3E
:10012800DFFF21C00BF022C00CF0030E0B02F3CF4F
:1001380009F0F4CF0AF00C02F3500A2623C00BF0A2
:1001480024C00CF06C0E0B02F3CF07F0F4CF08F0CC
:100158000C02F3500826E00E0B6E010E0C6E0B0E0F
:100168000B26000E0C2207500B2608500C220950B3
:100178000B24D96E0A500C20DA6EFECFDFFF21C0A7
:100188000BF022C00CF0030E0B02F3CF09F0F4CFF2
:100198000AF00C02F3500A2623C00BF024C00CF01E
:1001A8006C0E0B02F3CF07F0F4CF08F00C02F350FB
:1001B8000826E00E0B6E010E0C6E0A0E0B26000EC2
:1001C8000C2207500B2608500C2209500B24D96E1C
:1001D8000A500C20DA6EFDCFDFFF214A222A0600E2
:1001E800FC50D8A470D723C00BF024C00CF06C0EC0
:1001F8000B02F3CF09F0F4CF0AF00C02F3500A26F1
:10020800460E0924D96E020E0A20DA6E21C0DEFFDE
:1002180022C0DDFFC0EC08F001C0FEF302C0FFF30E
:10022800FC6AFEC323F0FFC324F023C00BF024C0F4
:100238000CF06C0E0B02F3CF09F0F4CF0AF00C02AD
:10024800F3500A26460E0924D96E020E0A20DA6EE9
:10025800DE50DE10D8A41ED0050023C00BF024C049
:100268000CF06C0E0B02F3CF09F0F4CF0AF00C027D
:10027800F3500A26480E0924D96E020E0A20DA6EB7
:10028800DECF0BF0DDCF0CF00BC0FDFF0CC0FEFF86
:10029800FF6AFFD023C00BF024C00CF06C0E0B02D9
:1002A800F3CF09F0F4CF0AF00C02F3500A26E80E57
:1002B8000924D96E010E0A20DA6E010EDF6E23C002
:1002C8000BF024C00CF06C0E0B02F3CF09F0F4CF46
:1002D8000AF00C02F3500A26E50E0924D96E010E25
:1002E8000A20DA6EDF500C6E0C5023C00BF024C0CD
:1002F8000CF06C0E0B02F3CF09F0F4CF0AF00C02ED
:10030800F3500A26E60E0924D96E010E0A20DA6E89
:10031800DF50D86E23C00BF024C00CF06C0E0B021B
:10032800F3CF09F0F4CF0AF00C02F3500A26E70ED7
:100338000924D96E010E0A20DA6EDF50E06E23C060
:100348000BF024C00CF06C0E0B02F3CF09F0F4CFC5
:100358000AF00C02F3500A26460E0924D96E020E42
:100368000A20DA6EDECF21F0DDCF22F08ED0050034
:1003780021C00BF022C00CF0030E0B02F3CF09F0E2
:10038800F4CF0AF00C02F3500A2623C00BF024C065
:100398000CF06C0E0B02F3CF07F0F4CF08F00C0250
:1003A800F3500826E00E0B6E010E0C6E070E0B269E
:1003B800000E0C2207500B2608500C2209500B2463
:1003C800D96E0A500C20DA6EDF50FD6E21C00BF09A
:1003D80022C00CF0030E0B02F3CF09F0F4CF0AF0A1
:1003E8000C02F3500A2623C00BF024C00CF06C0E4C
:1003F8000B02F3CF07F0F4CF08F00C02F3500826F5
:10040800E00E0B6E010E0C6E080E0B26000E0C2271
:1004180007500B2608500C2209500B24D96E0A509D
:100428000C20DA6EDF50FE6E21C00BF022C00CF0FB
:10043800030E0B02F3CF09F0F4CF0AF00C02F350CD
:100448000A2623C00BF024C00CF06C0E0B02F3CF6D
:1004580007F0F4CF08F00C02F3500826E00E0B6EFC
:10046800010E0C6E060E0B26000E0C2207500B26F2
:1004780008500C2209500B24D96E0A500C20DA6E51
:10048800DF50FF6E2106D8A0220621502210D8A4E2
:100498006ED7F28EE5521200060EE126000EE22219
:1004A800F90EE3CF01F07E0E016405D0000E016E57
:1004B800000E026EBBD0040E016EFB0E01C0E3FFFE
:1004C800000E016EFA0E01C0E3FFFA0EE3CFD9FF6A
:1004D800FB0EE3CFDAFFDF500C6EFE0E0CC0E3FF1D
:1004E800E150FE0FD96EE250DA6EFF0EDA22DF50CD
:1004F8007F0B0C6EFF0E0C26FF0E0CC0E3FFFE0EEA
:10050800E350D8B4D3D7E150FE0FD96EE250DA6E7B
:10051800FF0EDA22DFBE16D0E150FF0FD96EE2508F
:10052800DA6EFF0EDA22F90EE350DE5CD8B020D086
:10053800FA0EE3CFE6FFE3CFE6FF1FEC03F001502E
:10054800D8A4C3D7E150FE0FD96EE250DA6EFF0E81
:10055800DA22DF507F0B010DE150FA0FD96EE2501D
:10056800DA6EFF0EDA22F350DE26F450DD22ADD724
:10057800E150F90FD96EE250DA6EFF0EDA22FF0E63
:10058800E350DE18D8A411D0FA0EE3CFD9FFFB0E42
:10059800E3CFDAFFDF8EFA0EE350010F016EFB0E98
:1005A800E3CF02F0000E022241D0FA0EE3CFD9FFCA
:1005B800FB0EE3CFDAFFF90EE350810FDF6EFA0E80
:1005C800E350010F0B6EFB0EE3CF0CF0000E0C2274
:1005D800FD0E0CC0E3FFFC0E0BC0E3FFF90EE35069
:1005E8000B6E0C6A010E0B26000E0C22E150FA0F5E
:1005F800D96EE250DA6EFF0EDA220B50DE260C506E
:10060800DD22FA0EE3CFD9FFFB0EE3CFDAFFF90EB6
:10061800E3CF0CF0FF0EE3CF0BF00C500B5CDF6E5A
:10062800FC0EE3CF01F0FD0EE3CF02F0F90EE12658
:10063800FF0EE2221200050EE126000EE222F90E5C
:10064800E3CFD9FFFA0EE3CFDAFFDF500B6E0C6A67
:10065800F90EE3500B26FA0EE3500C22FC0E0CC0E8
:10066800E3FFFB0E0BC0E3FFF90EE3CFD9FFFA0E51
:10067800E3CFDAFFDF500C6EFE0E0CC0E3FFFB0E7B
:10068800E3CFD9FFFC0EE3CFDAFFDF500C6EFD0E8F
:100698000CC0E3FFFD0EE350D8A402D0000E6ED0CC
:1006A800E150FE0FD96EE250DA6EFF0EDA22DFBE9D
:1006B800F5D7E150FD0FD96EE250DA6EFF0EDA225F
:1006C800DFBEECD7E150FE0FD96EE250DA6EFF0EB6
:1006D800DA22DF507F0B7F0AD8B4E0D7FD0EE3CFD4
:1006E8000CF0FE0EE3500C240B6EFF0E0BC0E3FF64
:1006F800FF0EE3CF01F07F0E016436D0F90EE3CF91
:10070800D9FFFA0EE3CFDAFF7F0EDF6EF90EE35062
:100718007F0F016EF90E01C0E3FF016AFA0EE35084
:100728000120016EFA0E01C0E3FFFD0EE350010D3A
:10073800E150FB0FD96EE250DA6EFF0EDA22F35069
:10074800DE26F450DD22F90EE3CFD9FFFA0EE3CF0F
:10075800DAFFF90EE3CF0CF0FB0EE3CF0BF00C50F1
:100768000B5CDF6E7F0E0AD0F90EE3CFD9FFFA0ECD
:10077800E3CFDAFFFF0EE3CFDFFFDF50016EF90EA4
:10078800E126FF0EE2221200E652E652E652E65257
:10079800FE0EE36AFF0EE36A010E0B6E000E0C6E8E
:1007A800FC0E0BC0E3FFFD0E0CC0E3FF63D0FC0E94
:1007B800E3CF0BF0FD0EE3CF0CF06C0E0B02F3CF82
:1007C80009F0F4CF0AF00C02F3500A26E20E0924CD
:1007D800D96E010E0A20DA6EFE0EE3CF0BF0FF0E83
:1007E800E3CF0CF06C0E0B02F3CF09F0F4CF0AF054
:1007F8000C02F3500A26E20E0924E96E010E0A20C3
:10080800EA6EDE50EE5CDE50EE58D8B024D0FC0E16
:10081800E3CF0BF0FD0EE3CF0CF06C0E0B02F3CF21
:1008280009F0F4CF0AF00C02F3500A26E80E092466
:10083800D96E010E0A20DA6EDF50D8A40CD0FC0E57
:10084800E3CF01F0FE0E01C0E3FFFD0EE3CF01F0A0
:10085800FF0E01C0E3FFFC0EE350010F016EFC0E1A
:1008680001C0E3FF016AFD0EE3500120016EFD0E99
:1008780001C0E3FF23EEFCF0FC0EE3CF01F0DE50F5
:10088800015CFD0EE3CF01F0DE500158D8A08FD7F0
:10089800FE0EE3CF01F0FF0EE3CF02F0E552E55282
:1008A800E552E5521200E652E652FE0EE36AFF0EEA
:1008B800E36A74D0FE0EE3CF0BF0FF0EE3CF0CF02B
:1008C8006C0E0B02F3CF09F0F4CF0AF00C02F350D0
:1008D8000A26E80E0924D96E010E0A20DA6E020EE5
:1008E800DE18D8A44CD0FE0EE3CF0BF0FF0EE3CFFA
:1008F8000CF06C0E0B02F3CF09F0F4CF0AF00C02E7
:10090800F3500A264A0E0924D96E020E0A20DA6E1E
:10091800DE06000EDD5AFE0EE3CF0BF0FF0EE3CF2E
:100928000CF06C0E0B02F3CF09F0F4CF0AF00C02B6
:10093800F3500A264A0E0924D96E020E0A20DA6EEE
:10094800DE50DE10D8A41BD0FE0EE3CF0BF0FF0E56
:10095800E3CF0CF06C0E0B02F3CF09F0F4CF0AF0E2
:100968000C02F3500A26E80E0924D96E010E0A205B
:10097800DA6E000EDF6E000EE66E0AEC00F0FE0E78
:10098800E350010F016EFE0E01C0E3FF016AFF0E86
:10099800E3500120016EFF0E01C0E3FF23EEFCF0DF
:1009A800FE0EE3CF01F0DE50015CFF0EE3CF01F055
:1009B800DE500158D8A07ED7E552E5521200F29ECB
:1009C800FE0EE3CF0BF0FF0EE3CF0CF0080E0B2466
:1009D800D96E000E0C20DA6E010EDB5067E1020EB4
:1009E800DE5CD8B063D0E150FC0FD96EE250DA6E0D
:1009F800FF0EDA22FE0EE3CF0BF0FF0EE3CF0CF072
:100A0800040E0B24E96E000E0C20EA6EEECF0BF0FC
:100A1800EDCF0CF0D8900B34096E0C340A6EFE0E34
:100A2800E3CF0BF0FF0EE3CF0CF009500B24E96E77
:100A38000A500C20EA6EDECFEEFFDDCFEDFFFE0E92
:100A4800E3CF0BF0FF0EE3CF0CF0040E0B24D96EAE
:100A5800000E0C20DA6EDECF0BF0DDCF0CF0010EAD
:100A68000B26000E0C22010E0B16000E0C16FE0EA5
:100A7800E3CF09F0FF0EE3CF0AF0040E0924D96E84
:100A8800000E0A20DA6E0BC0DEFF0CC0DDFFFE0E82
:100A9800E3CF0BF0FF0EE3CF0CF0080E0B24D96E5A
:100AA800000E0C20DA6EDE2A000EDD22F28EE552F0
:100AB800E552E552E55212006C0EE126000EE222E4
:100AC80023EEFCF0DECF0BF0DDCF0CF0010E0B2691
:100AD800000E0C22940E0BC0E3FF950E0CC0E3FF32
:100AE800E150920FD96EE250DA6EFF0EDA22960EBE
:100AF800E124E96EFF0EE220EA6EDECFEEFFDDCFE5
:100B0800EDFF9C0EE124D96EFF0EE220DA6E000E96
:100B1800DF6EE150900FD96EE250DA6EFF0EDA22E6
:100B2800FC0EE124E96EFF0EE220EA6EDECFEEFF56
:100B3800DDCFEDFFFA0EE124D96EFF0EE220DA6E6A
:100B4800000EDE6E000EDD6EFE0EE124D96EFF0E85
:100B5800E220DA6E000EDE6E000EDD6E940EE124E9
:100B6800D96EFF0EE220DA6E03EEFCF0EECF0BF04A
:100B7800EDCF0CF06C0E0B02F3CF09F0F4CF0AF0B6
:100B88000C02F3500A26E00E0924E96E010E0A2031
:100B9800EA6E6B0EDBCFEBFFE806FCE223EEFCF01F
:100BA800DE2A000EDD22900EE126FF0EE222120060
:100BB800F29EFE0EE3CF0BF0FF0EE3CF0CF0080E13
:100BC8000B24D96E000E0C20DA6EDE50DE10D8B47D
:100BD80062D0FE0EE3CF0BF0FF0EE3CF0CF0060E53
:100BE8000B24D96E000E0C20DA6EDECF0BF0DDCFB1
:100BF8000CF0D8900B34096E0C340A6EFE0EE3CF5D
:100C08000BF0FF0EE3CF0CF009500B24D96E0A50FD
:100C18000C20DA6EFC0EE3CFE9FFFD0EE3CFEAFF0E
:100C2800DECFEEFFDDCFEDFFFE0EE3CF0BF0FF0EC4
:100C3800E3CF0CF0060E0B24D96E000E0C20DA6EF2
:100C4800DECF0BF0DDCF0CF0010E0B26000E0C22D0
:100C5800010E0B16000E0C16FE0EE3CF09F0FF0E68
:100C6800E3CF0AF0060E0924D96E000E0A20DA6EC8
:100C78000BC0DEFF0CC0DDFFFE0EE3CF0BF0FF0E56
:100C8800E3CF0CF0080E0B24D96E000E0C20DA6EA0
:100C9800DE06000EDD5AF28EE552E552E552E552C7
:100CA8001200E652E652E652E652040E016EFF0EBC
:100CB80001C0E3FF000E016EFE0E01C0E3FFFF0E50
:100CC8000B6E010E0C6EFC0E0BC0E3FFFD0E0CC08C
:100CD800E3FFFD0EE35007E1FC0EE3CF01F0800EC9
:100CE800015ED8A023D0FE0EE3CFD9FFFF0EE3CFDD
:100CF800DAFF7F0EDF6EFE0EE3507F0F016EFE0EF1
:100D080001C0E3FF016AFF0EE3500120016EFF0EF0
:100D180001C0E3FFE150FC0FD96EE250DA6EFF0E1E
:100D2800DA22810EDE26FF0EDD22D3D7FE0EE3CFB8
:100D3800D9FFFF0EE3CFDAFFFC0EE3CFDFFFFC0E97
:100D4800E3CF0BF0FD0EE3CF0CF0FE0EE3CF09F07E
:100D5800FF0EE3CF0AF00B500924D96E0C500A207D
:100D6800DA6E000EDF6EE552E552E552E5521200EA
:100D78000600E9CF40F0EACF41F0E1CF42F0E2CF00
:100D880043F0D9CF44F0DACF45F0F3CF46F0F4CFB3
:100D980047F001C048F002C049F007C04AF008C057
:100DA8004BF009C04CF00AC04DF00BC04EF00CC01F
:100DB8004FF010EEF6F0F29EF2A411D0F294FC0E71
:100DC800D66E83A002D0010E01D0000EFF0A3F6E3E
:100DD80083503F18FE0B3F18836E57EC04F0F28ED9
:100DE8004FC00CF04EC00BF04DC00AF04CC009F0DB
:100DF8004BC008F04AC007F049C002F048C001F0F3
:100E080047C0F4FF46C0F3FF45C0DAFF44C0D9FF2E
:100E180043C0E2FF42C0E1FF41C0EAFF40C0E9FF32
:100E28001100FE0EE3CF0BF0FF0EE3CF0CF0040E23
:100E38000B24D96E000E0C20DA6E000EDE6E000E4A
:100E4800DD6EFE0EE3CF0BF0FF0EE3CF0CF0060EC7
:100E58000B24D96E000E0C20DA6E000EDE6E000E2A
:100E6800DD6EFE0EE3CF0BF0FF0EE3CF0CF0080EA5
:100E78000B24D96E000E0C20DA6E000EDE6E000E0A
:100E8800DD6E000EE66E000EE66EFC0EE3CF0BF094
:100E9800FD0EE3CF0CF00A0E0B24D96E000E0C20C9
:100EA800DA6EDECF0BF0DDCF0CF00BC0E6FF0CC026
:100EB800E6FFB5EC08F0E552E552E552E5521200BE
:100EC80063EC08F046EC08F0ADEC08F0A4EC08F090
:100ED800BCEC08F0050EE66E000EE66E010EE66E3E
:100EE800000EE66ED2EC07F04C0EE66E100EE66EC3
:100EF800030EE66E000EE66E60EC05F0360EE66E4A
:100F08000F0EE66E040EE66E000EE66E60EC05F05F
:100F1800F80EE66E100EE66E050EE66E000EE66E34
:100F280060EC05F0000EE66E0AEC00F0FFD7E65222
:100F3800E652FE0EE124016EFF0EE220026E01C0B1
:100F4800E6FF02C0E6FF330EE66E000EE66EDCEC4E
:100F580005F0FE0EE3041BE1FF0EE350D8A417D002
:100F680081A802D0010E01D0000EFF0A0C6E0C3AC7
:100F780081500C18EF0B0C18816E000EE66E000EF7
:100F8800E66E330EE66E000EE66EE3EC04F0B80E85
:100F9800E66E0B0EE66EFDEC07F0CBD7FE0EE30413
:100FA8000CE1FF0EE350D8A408D0F80E8016FC0E12
:100FB800E3CF0CF080500C1016D0FE0EE3CF01F0FA
:100FC800020E011811E1FF0EE350D8A40DD0C70E90
:100FD8008016FC0EE3CF0CF0D8900C36D8900C3667
:100FE800D8900C348010806EE552E552E552E552F7
:100FF8001200F29EE150FE0FD96EE250DA6EFF0E3B
:10100800DA2203EEFEF0EECF0BF0EDCF0CF06C0E13
:101018000B02F3CF09F0F4CF0AF00C02F3500A26C2
:101028004A0E0924E96E020E0A20EA6EDECFEEFFB0
:10103800DDCFEDFF020EE66E0AEC00F0F28EE5520F
:10104800E5521200010EE66E000EE66E330EE66EF5
:10105800000EE66EE3EC04F081A602D0010E01D08A
:10106800000EFF0A0C6E0C460C460C4681500C18FC
:10107800F70B0C18816EE80EE66E030EE66EFDECBB
:1010880007F0E0D7010E936E250EE66E000EE66EB1
:10109800330EE66E000EE66E15EC07F0050EE66EF2
:1010A80050EC02F0BCEC08F0050EE66E000EE66EA1
:1010B800010EE66E000EE66ED2EC07F0120055EC5B
:1010C80006F0000EE8CFFEF3000EE8CFFFF3000EA7
:1010D800E8CFFCF3000EE8CFFDF3860EE66E110EA6
:1010E800E66E000EE66E000EE66E60EC05F012008D
:1010F80081AA02D0010E01D0000EFF0A0C6E0C3A34
:101108000C4681500C18DF0B0C18816EE80EE66E49
:10111800030EE66EFDEC07F0EBD701EEE0F024EEEF
:1011280020F0EE6ADD50D950FCE1DA50FAE100EE29
:1011380021F01E0EEE6AE806FDE1000164EF07F0FB
:10114800D59AD596070ED512F28CF28AFC0ED66E79
:1011580012009590F28EF288F288F292F19EF19C3C
:101168001200F29EF28EE552E552E552E552120067
:10117800C00E926E806A1200C8EC03F0120000F0F4
:02118800FED790
:020000040020DA
:08000000FFFFFFFFFFFFFFFF00
:020000040030CA
:0E000000FF071F1EFF8185FF0FC00FE00F409E
:00000001FF
